:100000000C94E2000C946B190C9498190C940A014E
:100010000C940A010C940A010C940A010C940A0134
:100020000C940A010C940A010C940A010C940A0124
:100030000C940A010C940A010C940A010C940A0114
:100040000C9435070C940A010C94820D0C94C50D88
:100050000C940A010C940A010C940A010C940A01F4
:100060000C948A1D0C940A01000000070002010094
:100070000003040600000000000000000102040864
:100080001020408001020408102001020408102002
:10009000040404040404040402020202020203032E
:1000A00003030303000000002300260029000000D2
:1000B0000000250028002B0000000000240027007D
:1000C0002A0000407A10F35A00A0724E180900105E
:1000D000A5D4E80000E87648170000E40B540200BD
:1000E00000CA9A3B000000E1F505000080969800E8
:1000F000000040420F000000A08601000000102711
:1001000000000000E80300000000640000000000A0
:100110000A00000000000100000000002C76D888D2
:10012000DC674F0823DFC1DFAE59E1B1B796E5E3E5
:10013000E453C63AE651997696E8E6C28426EB89FE
:100140008C9B62ED407C6FFCEFBC9C9F40F2BAA59B
:100150006FA5F490055A2AF75C936B6CF9676DC133
:100160001BFCE0E40D47FEF520E6B500D0ED902E37
:100170000300943577050080841E080000204E0A95
:10018000000000C80C333333330F986E12831141D3
:10019000EF8D2114893BE65516CFFEE6DB18D1849E
:1001A0004B381BF77C1D901DA4BBE42420328472C5
:1001B0005E228100C9F124ECA1E53D27E306810E12
:1001C000A81CF50611241FBECFEFD8E0DEBFCDBFBF
:1001D00011E0A0E0B1E0EAEBFBE402C005900D9273
:1001E000A838B107D9F723E0A8E8B1E001C01D9213
:1001F000AE3AB207E1F711E0C2ECD1E004C02297B9
:10020000FE010E94BD25CC3BD107C9F70E94E30C3B
:100210000C9413200C94000060E0809109010E946E
:100220007C0860E0809107010E947C0860E080917A
:1002300005010C947C08AF92BF92CF92DF92EF92AF
:10024000FF920F931F93CF93DF93CDB7DEB76197E4
:100250000FB6F894DEBF0FBECDBF5C016A017B0113
:1002600066E171E0CE010B960E94730A8E010F5F6A
:100270001F4F22E041E0C701B6010E94B71EB8013E
:10028000C5010E94730ACE010B960E94050AC501A2
:1002900061960FB6F894DEBF0FBECDBFDF91CF9150
:1002A0001F910F91FF90EF90DF90CF90BF90AF9094
:1002B000089561E0809109010E94430861E0809106
:1002C00007010E94430861E0809105010C944308F6
:1002D000CF92DF92EF92FF926B017C016115710565
:1002E0008105910531F4FF90EF90DF90CF900C9451
:1002F0000C01B70188279927809109010E947C0889
:1003000099278F2D7E2D6D2D809107010E947C08ED
:100310006C2D80910501FF90EF90DF90CF900C94B1
:100320007C08CF92DF92EF92FF92CF93DF93CDB70D
:10033000DEB727970FB6F894DEBF0FBECDBF6B01B7
:100340007C0162E171E0CE0101960E94730AB7015F
:10035000A601CE0101960E94DA0BBE016F5F7F4FAE
:100360008DEA91E00E9469096FEF70E080E090E013
:100370000E94680168EE73E080E090E00E94AE07A2
:100380000E940C01CE0101960E94050A27960FB625
:10039000F894DEBF0FBECDBFDF91CF91FF90EF90FD
:1003A000DF90CF900895EF92FF920F931F93CF931A
:1003B000DF93CDB7DEB763970FB6F894DEBF0FBEFD
:1003C000CDBF0A871B872C873D875F87688B798B1A
:1003D00067E171E0CE0101960E94730A4A855B8550
:1003E0006C857D85CE0101960E94DA0B65E171E096
:1003F000CE0101960E94F60A6989CE0101960E94FB
:10040000190B65E171E0CE0101960E94F60A61E0E8
:1004100070E08F859889019711F060E070E0CE015F
:1004200001960E94460BBE016F5F7F4F8DEA91E0FF
:100430000E94690960E07FEF80E090E00E9468011F
:1004400068EE73E080E090E00E94AE070E940C012D
:10045000CE0101960E94050A63960FB6F894DEBF9E
:100460000FBECDBFDF91CF911F910F91FF90EF9005
:100470000895CF92DF92EF92FF920F931F93CF9345
:10048000DF936B017C018A01C0E0D0E0C017D10787
:10049000A4F4C701B6010E9468016AEF70E080E031
:1004A00090E00E94AE070E940C016AEF70E080E0CD
:1004B00090E00E94AE072196E9CFDF91CF911F9186
:1004C0000F91FF90EF90DF90CF900895EF92FF9201
:1004D0000F931F93CF93DF93CDB7DEB763970FB61C
:1004E000F894DEBF0FBECDBF7C01FC0183818F710C
:1004F0008E3109F069C043E050E060E07FE98FEFA2
:1005000090E00E9439028E010F5E1F4F9E01215F15
:100510003F4FAE014E5E5F4FBE016D5E7F4FC70124
:100520000E942E166CE171E0CE0108960E94730ABB
:100530006A89CE0108960E94190B65E171E0CE012F
:1005400008960E94F60A6F857889882777FD80953E
:10055000982F0E94F221AB01BC01CE0101960E94AE
:100560001B01BE016F5F7F4FCE0108960E94EF0A0C
:10057000CE0101960E94050A65E171E0CE01089660
:100580000E94F60A698970E080E090E00E94F02104
:10059000AB01BC01CE0101960E941B01BE016F5F41
:1005A0007F4FCE0108960E94EF0ACE0101960E946D
:1005B000050ABE01685F7F4F8DEA91E00E946909DC
:1005C000CE0108960E94050A63960FB6F894DEBF26
:1005D0000FBECDBFDF91CF911F910F91FF90EF9094
:1005E000089560E070E08FEF90E00E9468016AEF8C
:1005F00070E080E090E00E94AE0760E07FEF80E076
:1006000090E00E9468016AEF70E080E090E00E9454
:10061000AE076FEF70E080E090E00E9468016AEF43
:1006200070E080E090E00E94AE070C940C018823FB
:1006300029F080E00E94E8167894089580E00E94F6
:100640004717F8940895CF92DF92EF92FF920F939D
:10065000CF93DF93CDB7DEB727970FB6F894DEBF01
:100660000FBECDBF6B017C0160E870E880E090E0D8
:100670000E94680180E00E94170304E025ED30E04D
:10068000B701A601809103010E94821080E00E94C0
:10069000E816789462E171E0CE0101960E94730A37
:1006A000B701A601CE0101960E94A70B6AE371E093
:1006B000CE0101960E94F60ABE016F5F7F4F8DEA60
:1006C00091E00E9469090E940C01CE0101960E94EE
:1006D000050A27960FB6F894DEBF0FBECDBFDF9197
:1006E000CF910F91FF90EF90DF90CF900895CF9230
:1006F000DF92EF92FF920F931F93CF93DF93CDB7CB
:10070000DEB72F970FB6F894DEBF0FBECDBFD82E41
:10071000C92EF62EE42E0091A0011091A101209186
:10072000A2013091A301012B022B032B39F46FE1BD
:1007300071E08DEA91E00E947B094EC061E570E4B2
:1007400081E690E00E94680180E00E9417034091DA
:10075000A0015091A1016091A2017091A30105ED4A
:1007600010E020910301CE0101960E94F2134F2D5B
:100770006D2DCE0101960E94BD1480E00E94E81606
:10078000789467E171E0CE0109960E94730A6D2D9D
:100790007C2DCE0109960E94460B65E171E0CE01E9
:1007A00009960E94F60A6F2D70E0CE0109960E940C
:1007B000460B6AE371E0CE0109960E94F60ABE017B
:1007C000675F7F4F8DEA91E00E9469090E940C01EA
:1007D000CE0109960E94050A2F960FB6F894DEBF47
:1007E0000FBECDBFDF91CF911F910F91FF90EF9082
:1007F000DF90CF9008958F929F92AF92BF92CF9249
:10080000DF92EF92FF920F931F93CF93DF93CDB7B9
:10081000DEB72E970FB6F894DEBF0FBECDBF60E0F7
:100820007FE98FEF90E00E94680188E891E00E94E4
:10083000CA188C0160E089E891E00E9410184B0111
:100840005C0189E891E00E9484186B017C016CE1F5
:1008500071E0CE0108960E94730A60919701709131
:100860009801CE0108960E94460B65E171E0CE0129
:1008700008960E94F60AB501A401CE0101960E94D5
:100880001B01BE016F5F7F4FCE0108960E94EF0AE9
:10089000CE0101960E94050A65E171E0CE0108963D
:1008A0000E94F60AB701A601CE0101960E941B0123
:1008B000BE016F5F7F4FCE0108960E94EF0ACE0106
:1008C00001960E94050A65E171E0CE0108960E943A
:1008D000F60AB801CE0108960E94780BBE01685F47
:1008E0007F4F8DEA91E00E9469090E940C01CE01C0
:1008F00008960E94050A2E960FB6F894DEBF0FBE2A
:10090000CDBFDF91CF911F910F91FF90EF90DF90BE
:10091000CF90BF90AF909F908F9008954F925F922D
:100920006F927F928F929F92AF92BF92CF92DF92FF
:10093000EF92FF920F931F93CF93DF93CDB7DEB764
:100940002E970FB6F894DEBF0FBECDBF8C01CDB68B
:10095000DEB665E171E0CE0101960E94730ABE0128
:100960006F5F7F4FC8010E94830C7C01CE0101960E
:100970000E94050A970140E050E0B801CE010896B8
:100980000E94870CCE0108960E94D80C6130710538
:1009900011F5A7014F5F5F4FB801CE0101960E948C
:1009A000CC0CBE016F5F7F4FCE0108960E948A0A71
:1009B000CE0101960E94050ACE0108960E94D80C2D
:1009C0006093A0017093A1018093A2019093A30171
:1009D00069E371E08BC16230710509F0CAC08FEF25
:1009E000E81AF80A65E171E0CE0101960E94730AE7
:1009F000A701BE016F5F7F4FC8010E94670C5C01B9
:100A0000CE0101960E94050A9501A701B801CE0109
:100A100001960E94870CBE016F5F7F4FCE01089642
:100A20000E948A0ACE0101960E94050ACE0108960C
:100A30000E94D80C61307105D1F4A5014F5F5F4F62
:100A4000B801CE0101960E94CC0CBE016F5F7F4FB2
:100A5000CE0108960E948A0ACE0101960E94050ADC
:100A6000CE0108960E94D80C0E94230343C1623035
:100A7000710509F03FC19FEFA91AB90A65E171E05C
:100A8000CE0101960E94730AA501BE016F5F7F4FE0
:100A9000C8010E94670C7C01CE0101960E94050AE4
:100AA0009701A501B801CE0101960E94870CBE01F5
:100AB0006F5F7F4FCE0108960E948A0ACE01019691
:100AC0000E94050ACE0108960E94D80C2B013C0119
:100AD00057018FEFA81AB80A65E171E0CE010196BF
:100AE0000E94730AA501BE016F5F7F4FC8010E947B
:100AF000670C7C01CE0101960E94050A9701A501B1
:100B0000B801CE0101960E94870CBE016F5F7F4F36
:100B1000CE0108960E948A0ACE0101960E94050A1B
:100B2000CE0108960E94D80C4B015C01A7014F5FD3
:100B30005F4FB801CE0101960E94CC0CBE016F5FE1
:100B40007F4FCE0108960E948A0ACE0101960E942C
:100B5000050ACE0108960E94D80C21E089288A282F
:100B60008B2809F420E0AB01622FC2010E947703B9
:100B7000C1C063307105B1F59FEFE91AF90A65E16B
:100B800071E0CE0101960E94730AA701BE016F5F5A
:100B90007F4FC8010E94670C5C01CE0101960E9444
:100BA000050A9501A701B801CE0101960E94870CA4
:100BB000BE016F5F7F4FCE0108960E948A0ACE0168
:100BC00001960E94050ACE0108960E94D80C209139
:100BD0009701309198012617370709F08BC00E94C2
:100BE000FB0388C06930710509F07EC057018FEFA3
:100BF000A81AB80A65E171E0CE0101960E94730A55
:100C0000A501BE016F5F7F4FC8010E94670C7C0188
:100C1000CE0101960E94050A9701A501B801CE01F7
:100C200001960E94870CBE016F5F7F4FCE01089630
:100C30000E948A0ACE0101960E94050A6EE371E0C5
:100C4000CE0108960E940D0C882319F00E940C0119
:100C500051C0ADB6BEB64C855D854F5F5F4F8DB759
:100C60009EB7841B950B0FB6F8949EBF0FBE8DBF29
:100C700001964C0120E030E0BC01CE0108960E94B4
:100C80003D0C40E150E060E070E0C4010E94D81EDD
:100C90002B013C01A7014F5F5F4FB801CE010196C8
:100CA0000E94CC0CBE016F5F7F4FCE0108960E9460
:100CB0008A0ACE0101960E94050ACE0108960E947A
:100CC000D80C6130710529F4C301B2010E9468019A
:100CD00005C0AB01C301B2010E9439020FB6F894FE
:100CE000BEBE0FBEADBE06C062E471E08DEA91E00B
:100CF0000E947B09CE0108960E94050A0FB6F8945F
:100D0000DEBE0FBECDBE2E960FB6F894DEBF0FBE70
:100D1000CDBFDF91CF911F910F91FF90EF90DF90AA
:100D2000CF90BF90AF909F908F907F906F905F908B
:100D30004F90089540E855E260E070E08DEA91E060
:100D40000E94000E0E9459012AE030E040E050E08D
:100D50006FEF70E08DEA91E00E94F30941E951E004
:100D600062E08FEF0E946D1043ED51E062E08FEF83
:100D70000E94B11366E672E08FEF0E94121661E0E6
:100D800080E00E94E21667ED7EE080E00E9421177D
:100D900062E571E180E00E94211761E475E180E085
:100DA0000E94211789E891E00E94501760E188E8CD
:100DB00091E00E94251964E571E08DEA91E00E94BE
:100DC0007B090C94F10266E171E089E991E00E94EF
:100DD000730A26E04BE06091010189E891E00E94EE
:100DE000491788E891E00C94C91889E991E00C94BE
:100DF000050ACF93DF93CDB7DEB727970FB6F894E8
:100E0000DEBF0FBECDBF8DEA91E00E94F00C892BB2
:100E100019F18DEA91E00E94190D90910001891756
:100E200031F0682F89E991E00E94060BECCF69E967
:100E300071E0CE0101960E94A10ACE0101960E94A6
:100E40008E04CE0101960E94050A66E171E089E9EF
:100E500091E00E94AB0AD7CF27960FB6F894DEBF79
:100E60000FBECDBFDF91CF9108951F920F920FB6A5
:100E70000F9211242F933F938F939F93AF93BF9320
:100E80008091A5019091A601A091A701B091A80120
:100E90003091A40123E0230F2D3720F40196A11DEA
:100EA000B11D05C026E8230F0296A11DB11D209398
:100EB000A4018093A5019093A601A093A701B093EC
:100EC000A8018091A9019091AA01A091AB01B091D4
:100ED000AC010196A11DB11D8093A9019093AA01B7
:100EE000A093AB01B093AC01BF91AF919F918F9153
:100EF0003F912F910F900FBE0F901F9018952FB715
:100F0000F8946091A5017091A6018091A70190913C
:100F1000A8012FBF08953FB7F8948091A90190913F
:100F2000AA01A091AB01B091AC0126B5A89B05C068
:100F30002F3F19F00196A11DB11D3FBF6627782FE5
:100F4000892F9A2F620F711D811D911D42E0660F3E
:100F5000771F881F991F4A95D1F70895CF92DF9286
:100F6000EF92FF92CF93DF936B017C010E948B077E
:100F7000EB01C114D104E104F10479F00E948B0764
:100F80006C1B7D0B683E7340A0F381E0C81AD1084A
:100F9000E108F108C851DC4FECCFDF91CF91FF9011
:100FA000EF90DF90CF9008950197009739F0880F68
:100FB000991F880F991F02970197F1F70895789468
:100FC00084B5826084BD84B5816084BD85B582604E
:100FD00085BD85B5816085BDEEE6F0E080818160EC
:100FE0008083E1E8F0E010828081826080838081EC
:100FF00081608083E0E8F0E0808181608083E1EBC4
:10100000F0E0808184608083E0EBF0E080818160AB
:101010008083EAE7F0E08081846080838081826061
:10102000808380818160808380818068808310924A
:10103000C1000895833081F028F4813099F0823026
:10104000A1F008958630A9F08730B9F08430D1F44A
:10105000809180008F7D03C0809180008F77809386
:101060008000089584B58F7702C084B58F7D84BDDC
:1010700008958091B0008F7703C08091B0008F7D7C
:101080008093B0000895CF93DF9390E0FC01E45883
:10109000FF4F2491FC01E057FF4F8491882349F1D1
:1010A00090E0880F991FFC01E854FF4FA591B4917F
:1010B00082559F4FFC01C591D4919FB7611108C023
:1010C000F8948C91209582238C93888182230AC086
:1010D000623051F4F8948C91322F309583238C93A5
:1010E0008881822B888304C0F8948C91822B8C9306
:1010F0009FBFDF91CF9108950F931F93CF93DF93FD
:101100001F92CDB7DEB7282F30E0F901E859FF4F25
:101110008491F901E458FF4F1491F901E057FF4F12
:1011200004910023C9F0882321F069830E941A08E2
:101130006981E02FF0E0EE0FFF1FE255FF4FA59110
:10114000B4919FB7F8948C91611103C010958123DD
:1011500001C0812B8C939FBF0F90DF91CF911F9186
:101160000F910895CF93DF93282F30E0F901E859CC
:10117000FF4F8491F901E458FF4FD491F901E057F2
:10118000FF4FC491CC2391F081110E941A08EC2FDB
:10119000F0E0EE0FFF1FEC55FF4FA591B4912C919D
:1011A0002D2381E090E021F480E002C080E090E017
:1011B000DF91CF910895CF92DF92EF92FF920F933C
:1011C0001F93CF93DF936C017A01EB01E60EF71EBC
:1011D00000E010E0CE15DF0561F06991D601ED91D8
:1011E000FC910190F081E02DC6010995080F191FAF
:1011F000F1CFC801DF91CF911F910F91FF90EF9038
:10120000DF90CF9008956115710581F0DB010D909D
:101210000020E9F7AD0141505109461B570BDC0195
:10122000ED91FC910280F381E02D099480E090E043
:101230000895AF92BF92CF92DF92EF92FF920F93F9
:101240001F93CF93DF937C016B01C0E0D0E000E0FF
:1012500010E0D60114968D919C911597C817D90767
:1012600088F4D701ED91FC91A080B180BE01C60148
:101270000E942C0C682FC701F5010995080F191F52
:101280002196E7CFC801DF91CF911F910F91FF9079
:10129000EF90DF90CF90BF90AF900895DC01ED917B
:1012A000FC910190F081E02D09940F931F93CF934F
:1012B000DF93EC016DE00E944E098C016AE0CE01E3
:1012C0000E944E09800F911FDF91CF911F910F91C6
:1012D00008950F931F93CF93DF93EC010E94190998
:1012E0008C01CE010E945509800F911FDF91CF9193
:1012F0001F910F9108950F931F93CF93DF93EC01EC
:101300000E9403098C01CE010E945509800F911F94
:10131000DF91CF911F910F9108958F929F92AF927D
:10132000BF92CF92DF92EF92FF920F931F93CF93D2
:10133000DF93CDB7DEB7A1970FB6F894DEBF0FBE2F
:10134000CDBF7C01C42EE52FCB01D22E19A221E006
:101350002D1510F02AE0D22E8E010F5D1F4F8D2C1F
:10136000912CA12CB12C6C2D7E2FA50194010E94F3
:101370008E258C2DD29E80191124015011098A309E
:1013800014F4805D01C0895CF8018083211531056A
:101390004105510521F0C22EE32FCA01E4CFB80167
:1013A000C7010E940309A1960FB6F894DEBF0FBED5
:1013B000CDBFDF91CF911F910F91FF90EF90DF9004
:1013C000CF90BF90AF909F908F90089521153105D9
:1013D00041F4DC01ED91FC910190F081E02D642F4E
:1013E00009940C948D090F931F93CF93DF93EC0115
:1013F0000E94E6098C01CE010E945509800F911FC1
:10140000DF91CF911F910F910895FC01808191810F
:101410000C94461BCF93DF93EC0188819981009750
:1014200011F00E94461B198218821D821C821B82A9
:101430001A82DF91CF9108950F931F93CF93DF937B
:10144000EC018B016F5F7F4F888199810E94C519E4
:10145000009731F0998388831B830A8381E001C060
:1014600080E0DF91CF911F910F910895CF93DF938B
:10147000EC0188819981892B29F08A819B818617CB
:10148000970760F4CE010E941C0A882341F08C81EA
:101490009D81892B19F4E881F981108281E0DF9127
:1014A000CF910895EF92FF920F931F93CF93DF9305
:1014B000EC017B018A01BA010E94360A811104C045
:1014C000CE010E940A0A07C01D830C83B7018881E0
:1014D00099810E943020CE01DF91CF911F910F9111
:1014E000FF90EF900895FC01118210821382128206
:1014F0001582148216826115710559F0FB01019065
:101500000020E9F7AF0141505109461B570B0C94DD
:10151000520A0895CF93DF93EC01FB0186179707DA
:1015200061F0608171816115710529F044815581F7
:101530000E94520A02C00E940A0ACE01DF91CF9196
:101540000895FC0111821082138212821582148286
:1015500016820C948A0ACF93DF93EC016115710512
:1015600061F0FB0101900020E9F7AF014150510902
:10157000461B570B0E94520A02C00E940A0ACE0163
:10158000DF91CF910895EF92FF920F931F93CF9326
:10159000DF93EC017B010C811D816115710511F454
:1015A00080E016C04115510591F0040F151FB801D8
:1015B0000E94360A8823A1F3288139818C819D817C
:1015C000B701820F931F0E9430201D830C8381E09E
:1015D000DF91CF911F910F91FF90EF900895FB0144
:1015E00044815581608171810C94C30A6115710534
:1015F00059F0FB0101900020E9F7AF01415051097A
:10160000461B570B0C94C30A80E00895CF93DF93D9
:1016100000D0CDB7DEB769831A8241E050E0BE0149
:101620006F5F7F4F0E94C30A0F900F90DF91CF91A1
:101630000895EF92FF920F931F93CF93DF9300D003
:1016400000D0CDB7DEB77C01862F4AE050E08E0196
:101650000F5F1F4FB80190E00E946020F8010190D9
:101660000020E9F7AF0141505109401B510BB8016F
:10167000C7010E94C30A0F900F900F900F90DF9147
:10168000CF911F910F91FF90EF900895EF92FF92ED
:101690000F931F93CF93DF93CDB7DEB727970FB686
:1016A000F894DEBF0FBECDBF7C01CB014AE050E015
:1016B0008E010F5F1F4FB8010E946020F80101905A
:1016C0000020E9F7AF0141505109401B510BB8010F
:1016D000C7010E94C30A27960FB6F894DEBF0FBE5B
:1016E000CDBFDF91CF911F910F91FF90EF900895A3
:1016F000EF92FF920F931F93CF93DF9300D000D010
:1017000000D0CDB7DEB77C01CB014AE050E08E01BE
:101710000F5F1F4FB8010E94D220F80101900020F6
:10172000E9F7AF0141505109401B510BB801C70106
:101730000E94C30A26960FB6F894DEBF0FBECDBF37
:10174000DF91CF911F910F91FF90EF900895EF924D
:10175000FF920F931F93CF93DF93CDB7DEB72C97F4
:101760000FB6F894DEBF0FBECDBF7C01CB01BA012E
:101770002AE030E08E010F5F1F4FA8010E94762003
:10178000F80101900020E9F7AF0141505109401BD9
:10179000510BB801C7010E94C30A2C960FB6F894EA
:1017A000DEBF0FBECDBFDF91CF911F910F91FF9094
:1017B000EF900895EF92FF920F931F93CF93DF93D3
:1017C000CDB7DEB72B970FB6F894DEBF0FBECDBFF7
:1017D0007C01CB01BA012AE030E08E010F5F1F4F80
:1017E000A8010E94A520F80101900020E9F7AF01AF
:1017F00041505109401B510BB801C7010E94C30A57
:101800002B960FB6F894DEBF0FBECDBFDF91CF9100
:101810001F910F91FF90EF900895FC012481358175
:10182000232B31F421E061157105A1F0FB0108C003
:10183000FC01808191816115710531F421E0FC0189
:101840008081882339F005C00E94272021E0892B60
:1018500009F020E0822F0895FC0124813581621770
:10186000730748F480819181009729F0FC01E60F0D
:10187000F71F8081089580E008950F931F93CF9301
:10188000DF93EB0141155105E9F02097D9F0FC01F8
:101890006481758126173707A0F4621B730B8A01D8
:1018A000015011096017710708F48B01FC01608178
:1018B0007181620F731FA801CE010E943720C00FF3
:1018C000D11F1882DF91CF911F910F910895CF936F
:1018D000DF93FC01848195814817590778F4C08112
:1018E000D181FB0160817181CE01840F951F0E941F
:1018F0004620009719F08C1B9D0B02C08FEF9FEFC5
:10190000DF91CF91089540E050E00C94670CBF92B6
:10191000CF92DF92EF92FF920F931F93CF93DF93BB
:101920006C017B01EA0189012417350720F48D2F12
:10193000E901042F182F66E171E0C6010E94730AC5
:10194000D70114968D919C9115978C179D07C8F01F
:101950008017910708F48C01D701ED91FC91119744
:10196000E00FF11FB08010826D917C916C0F7D1F94
:10197000C6010E94AB0AD701ED91FC91E00FF11F67
:10198000B082C601DF91CF911F910F91FF90EF9030
:10199000DF90CF90BF900895CF93DF93EC01FB01D0
:1019A000248135810E94870CCE01DF91CF9108956B
:1019B000FC0180819181009711F00C94EC1F60E094
:1019C00070E0CB0108950E94DF070E949A06CCEBDD
:1019D000DDE00E94F9062097E1F30E94BC0DF9CFEB
:1019E000FC0124853585F901E05CFF4F8081918100
:1019F000329620813181821B930B8F739927089532
:101A0000FC0184859585FC01E05CFF4F408151819C
:101A10003296208131814217530741F00190F081C5
:101A2000E02DE80FF91F808190E008958FEF9FEF80
:101A30000895FC0184859585FC01E05CFF4F4081A1
:101A400051813296208131814217530779F0A0816C
:101A5000B181A80FB91F8C91208131812F5F3F4F39
:101A60002F7333273183208390E008958FEF9FEF0A
:101A70000895FC0181A1882329F0A489B5898C915E
:101A800086FFFBCF11A20895CF93DF93FC0126853B
:101A90003785D901A05CBF4F8D919C91119701961C
:101AA0008F739927E901CE5BDF4F488159818417F5
:101AB0009507D9F30D90BC91A02DA20FB31F6C9385
:101AC000A685B785A05CBF4F11969C938E93A6897F
:101AD000B7892C9181E090E0078C02C0880F991F94
:101AE0000A94E2F7282B2C9381E081A30488F589DE
:101AF000E02D80818064808381E090E0DF91CF9150
:101B0000089508951F920F920FB60F9211242F93EC
:101B10003F934F938F939F93EF93FF938091C000D8
:101B200082FD1CC04091C6008091530290915402E6
:101B300001968F7399272091550230915602821792
:101B4000930771F0E0915302F0915402ED5EFD4F66
:101B50004083909354028093530202C08091C60048
:101B6000FF91EF919F918F914F913F912F910F9006
:101B70000FBE0F901F9018958DEA91E00E94F00C17
:101B8000892B11F00C94810D08951F920F920FB6BE
:101B90000F9211242F933F938F939F93EF93FF9373
:101BA00020910F0230911002809111029091120247
:101BB0002817390731F48091C1008F7D8093C100CF
:101BC00014C0E0911102F0911202E153FE4F208106
:101BD000809111029091120201968F739927909330
:101BE0001202809311022093C600FF91EF919F9102
:101BF0008F913F912F910F900FBE0F901F901895CE
:101C0000CF92DF92EF92FF92CF93DF93EC016A01C4
:101C10007B01411581EE580761057105F9F0EC89EA
:101C2000FD8981E090E008A002C0880F991F0A9406
:101C3000E2F7808360E079E08DE390E0A701960110
:101C40000E948E2521503109410951095695479529
:101C500037952795211580E1380798F0EC89FD89A3
:101C6000108260E874E88EE190E0A70196010E947E
:101C70008E252150310941095109569547953795CF
:101C80002795E889F9893083EA89FB89208319A29D
:101C9000EE89FF89408181E090E09C010C8C02C0BC
:101CA000220F331F0A94E2F7422B4083EE89FF890B
:101CB00040819C010D8C02C0220F331F0A94E2F771
:101CC000422B4083EE89FF8940819C010E8C02C02B
:101CD000220F331F0A94E2F7422B4083EE89FF89DB
:101CE00020810F8C02C0880F991F0A94E2F780951B
:101CF00082238083DF91CF91FF90EF90DF90CF9090
:101D000008951092B0011092AF0188EE93E0A0E028
:101D1000B0E08093B1019093B201A093B301B0936E
:101D2000B4018BE691E09093AE018093AD0183E125
:101D300092E09093BA018093B9018FEC91E0909377
:101D4000BC018093BB0185EC90E09093BE01809331
:101D5000BD0184EC90E09093C0018093BF0180ECC2
:101D600090E09093C2018093C10181EC90E0909348
:101D7000C4018093C30182EC90E09093C6018093EC
:101D8000C50186EC90E09093C8018093C70184E080
:101D90008093C90183E08093CA0187E08093CB01DF
:101DA00085E08093CC0181E08093CD010895CF92AE
:101DB000DF92EF92FF920F931F9380917802882316
:101DC00009F47DC18091740290917502A091760210
:101DD000B09177028093700290937102A093720287
:101DE000B09373020E948B07609374027093750224
:101DF000809376029093770220916B02222319F050
:101E000010926B025CC120917D02C0907002D09054
:101E10007102E0907202F090730227FD15C0DC01A0
:101E2000CB018C199D09AE09BF090091690210917F
:101E30006A0220E030E080179107A207B30720F480
:101E400081E080936B023BC180916C0290916D02A6
:101E50009601281B390BC901C0926C02D0926D0209
:101E6000E0926E02F0926F0220917D022F3F09F006
:101E700056C089382EE0920708F421C16FE170E066
:101E80000E9466259B01709368026093670210921E
:101E90006602109262021092630210926402109223
:101EA000650210925E0210925F0210926002109220
:101EB0006102CB01880F991F880F991FEAE0F0E0BB
:101EC000BF010E94662570936A0260936902C9018E
:101ED00054E0880F991F5A95E1F7BF010E946625CB
:101EE00070935D0260935C0247E1429FC001439F93
:101EF000900D1124BF010E94662570935B026093D0
:101F00005A0245E2429FC001439F900D1124BF0138
:101F10000E9466257093590260935802CBC02091AD
:101F20007D0220330CF05FC040915702440F409374
:101F3000570220915C0230915D022817390710F09A
:101F40004E7011C020915A0230915B0282179307A4
:101F500008F4A3C02091580230915902281739077C
:101F600008F49BC041604093570280917D028378C2
:101F700087FF03C081508C6F8F5F833009F09AC058
:101F800020915E0230915F024091600250916102A7
:101F9000A3E0B0E00E94B02560935E0270935F0200
:101FA0008093600290936102209157022F70263037
:101FB00061F02A3021F0253009F06FC07BC0DC01D0
:101FC000CB010196A11DB11D05C0DC01CB0102961C
:101FD000A11DB11D80935E0290935F02A0936002E9
:101FE000B093610267C020917D02203349F42091B3
:101FF0005C0230915D022817390708F05BC04DC0C4
:10200000409167025091680269E1649F9001659F69
:10201000300D11248217930708F43FC064E2649FD7
:102020009001659F300D112428173907B0F1609198
:102030005E0270915F028091600290916102009156
:102040006202109163022091640230916502601770
:1020500071078207930751F0109266026093620243
:1020600070936302809364029093650220916602EC
:102070002F5F2093660230917C02231780F020911D
:10208000790221110AC021E020937902E0917A02BD
:10209000F0917B020995109279028FEF0EC0109299
:1020A0005E0210925F021092600210926102109222
:1020B0007D0205C080917D028F5F80937D021F911C
:1020C0000F91FF90EF90DF90CF9008958FEF809366
:1020D0007D0281E080937802089580937E02609370
:1020E0007C0250937B0240937A020E94661080919A
:1020F0007E0287FD06C041E050E067ED7EE00C9473
:102100003B1908952F923F924F925F926F927F9268
:102110008F929F92AF92BF92CF92DF92EF92FF92F7
:102120000F931F93CF93DF93982EE9016F7077275A
:102130001CE0C12CD12C7601E3E04E2E512C612CF9
:10214000712C32E0CC0CDD1CEE1CFF1C3A95D1F753
:10215000CB01BA01A30192010E948E25FA01C62A81
:10216000D72AE82AF92AA901BF01115051F70770AF
:1021700081E0282E01C0220C0A95EAF78E01000F9B
:10218000111F0C0F1D1F8FE18C9F50018D9FB00CF4
:102190001124312C260137018CE0882ED301C20195
:1021A00083709927AA27BB2781309105A105B10526
:1021B00071F190F00297A105B10509F044C061E00A
:1021C000892D0E947C08CE010E94D40760E0892DF1
:1021D0000E947C08C80127C061E0892D0E947C080C
:1021E000CE010E94D40760E0892D0E947C08C801BE
:1021F0000E94D40761E0892D0E947C08CE010E94D4
:10220000D40760E0892D0E947C08C8011AC061E0F3
:10221000892D0E947C08C8010E94D40760E0892DA6
:102220000E947C08CE010E94D40761E0892D0E94A3
:102230007C08C8010E94D40760E0892D0E947C08B8
:10224000CE010E94D40792E0769467945794479405
:102250009A95D1F78A9409F0A1CF61E0892D0E9467
:102260007C08CE010E94D40760E0892D0E947C0882
:10227000C5010E94D4073394321408F48BCFDF9148
:10228000CF911F910F91FF90EF90DF90CF90BF9073
:10229000AF909F908F907F906F905F904F903F9006
:1022A0002F900895CF92DF92EF92FF920F931F939A
:1022B0008091AE02882309F443C28091AA029091D2
:1022C000AB02A091AC02B091AD028093A6029093B4
:1022D000A702A093A802B093A9020E948B07609363
:1022E000AA027093AB028093AC029093AD0220914E
:1022F000A102222319F01092A10222C22091B3025E
:102300003091B402C090A602D090A702E090A8023B
:10231000F090A90237FD15C0DC01CB018C199D0995
:10232000AE09BF0900919F021091A00220E030E0A9
:1023300080179107A207B30720F481E08093A102E0
:10234000FFC18091A2029091A3029601281B390B34
:10235000C901C092A202D092A302E092A402F0921C
:10236000A5022091B3023091B4022F3F3F4F81F577
:10237000813C22E1920708F4E3C110929E0268E2D8
:1023800070E00E946625FB017093930260939202B5
:102390009B01220F331F260F371FC9016AE070E02F
:1023A0000E9466257093A00260939F023093910271
:1023B0002093900230938F0220938E0253E0EE0F11
:1023C000FF1F5A95E1F7F0938D02E0938C0229C12B
:1023D0002091B3023091B402232BA9F420919002F2
:1023E000309191022817390708F497C110929D0285
:1023F00010929B02109294021092950210929602F3
:10240000109297020EC12091B3023091B402213094
:102410003105C9F4209192023091930267E0629FE6
:10242000A001639F500D11248417950708F475C10E
:102430006FE0629FA001639F500D11244817590758
:1024400008F0EFC06AC12091B3023091B402243980
:1024500031050CF0E6C060918B02660F60938B0231
:1024600020919002309191022817390710F06E7078
:102470000FC020918E0230918F0282179307B8F01F
:1024800020918C0230918D022817390780F061600D
:1024900060938B028091B3029091B40264E070E08B
:1024A0000E947A258130910509F0BBC02BC0209194
:1024B00092023091930274E1729FA001739F500DBC
:1024C00011248417950708F428C170E5729FA001B4
:1024D000739F500D11244817590708F41EC161FD60
:1024E0001CC18091B3029091B4028339910509F423
:1024F000A2C08091B3029091B4028338910509F093
:102500000CC199C02091B3023091B4022A36310532
:102510003CF58091940290919502A0919602B09121
:102520009702880F991FAA1FBB1F80939402909354
:102530009502A0939602B093970220918B022F7080
:10254000213009F46EC0243009F0E7C08160809327
:10255000940290939502A0939602B093970261C063
:102560002091B3023091B4022E3631057CF4809173
:102570008B028F70813039F0843009F0CEC081E059
:10258000809398024EC0109298024BC02091B302E3
:102590003091B40222373105ACF420918B022F70B8
:1025A000213021F040F0243041F0B7C010929A025F
:1025B0001092990236C082E090E090939A02809344
:1025C00099022FC08091B3029091B4028238910594
:1025D0008CF480919B02880F80939B0290918B02D8
:1025E0009F709130F1F0943009F097C08160809332
:1025F0009B0217C08091B3029091B4028239910579
:1026000084F480919D02880F80939D0290918B02AB
:102610009F70913031F0943009F07FC081608093D9
:102620009D028091B3029091B40201969093B402FE
:102630008093B30285C08091B3029091B402833934
:10264000910519F481E080939C024091940250918D
:10265000950260919602709197028091810290910B
:102660008202A0918302B0918402481759076A0739
:102670007B0709F055C090919B02809188029813C6
:102680004FC090919C0280918902981349C090910B
:102690009D0280918A02981343C090919802809184
:1026A000850298133DC02091990230919A02809141
:1026B0008602909187022817390791F580919E0232
:1026C0008F5F80939E029091B2028917A8F180914A
:1026D000AF02811122C081E08093AF02E091B0028D
:1026E000F091B102E0909202F09093020091940276
:1026F0001091950220919602309197024091980294
:102700005091990260919A0270919B0280919C0273
:1027100090919D0209951092AF028FEF9FEF86CFA7
:1027200010929E028CE0E2E9F2E0AFE7B2E00190A5
:102730000D928A95E1F7C2CF1092B4021092B302C3
:102740001F910F91FF90EF90DF90CF9008958FEF42
:102750009FEF9093B4028093B30281E08093AE0226
:1027600008958093B5026093B2025093B1024093F2
:10277000B0020E94A7138091B50287FD06C041E018
:1027800050E062E571E10C943B190895CF93DF931B
:10279000EC0161E08C810E947C088D819E810E9409
:1027A000D40760E08C810E947C088D819E8125E0A9
:1027B000AC01249FC001259F900D11240E94D407D5
:1027C00061E08C810E947C088D819E810E94D407EB
:1027D00060E08C810E947C088D819E81DF91CF9189
:1027E0000C94D407EF920F931F93FC01822F408328
:1027F00051836283738324831683058341E050E011
:1028000001C0440FEA94EAF74150478361E01F9109
:102810000F91EF900C944308CF93DF93EC0161E0AC
:102820008C810E947C088D819E810E94D40760E08B
:102830008C810E947C082D813E81A9015695479587
:102840006AE0629FC001639F900D1124840F951F61
:10285000DF91CF910C94D407CF93DF93EC0161E02B
:102860008C810E947C088D819E810E94D40760E04B
:102870008C810E947C088D819E8128E2AC01249F7E
:10288000C001259F900D1124DF91CF910C94D407A6
:10289000CF93DF93EC01662321F0DF91CF910C946D
:1028A000C61361E08C810E947C088D819E810E940C
:1028B000D40760E08C810E947C088D819E810E94FB
:1028C000D40761E08C810E947C088D819E810E94EA
:1028D000D40760E08C810E947C088D819E8125E078
:1028E000AC01249FC001259F900D1124DF91CF9151
:1028F0000C94D4070F931F93CF93DF938C01C9E1FE
:10290000D0E0F80140815181628173810C2E04C0B6
:1029100076956795579547950A94D2F7642F61701D
:10292000C8010E944814219760F7DF91CF911F9151
:102930000F910895DF92EF92FF920F931F93CF9321
:10294000DF938C01D62EC3E0D0E0EE24E394F12C8B
:10295000C7010C2E01C0880F0A94EAF76D2D682379
:10296000C8010E944814219798F7DF91CF911F91D9
:102970000F91FF90EF90DF900895FF920F931F93B8
:10298000CF93DF93EC01062FF42E1F8117FD17C0A4
:10299000CE010E940C14CE010E947A1460E0CE0198
:1029A0000E9448146F2DCE010E944814602FCE0162
:1029B0000E949A14CE010E942C141150E7CFDF918F
:1029C000CF911F910F91FF90089521E02093D102A4
:1029D0008091B7029091B802969587959093D00216
:1029E0008093CF022093CE02089587FF02C095E91D
:1029F0008927982F9695982780FF02C02FE5922768
:102A000090FF02C02FE58227969589270895BF92EF
:102A1000CF92DF92EF92FF920F931F93CF93DF93AA
:102A20000091B90210E078018FEFE81AF80ABB2490
:102A3000B39480E0C12CCB2DD0E0EC16FD066CF0F9
:102A4000C654DD4FD880CD248D250E94F5149D2DD0
:102A5000990F9D259883B394EECFC11006C0F8015D
:102A6000E654FD4F91E02281821390E0892FDF919F
:102A7000CF911F910F91FF90EF90DF90CF90BF907B
:102A800008950F931F93CF93DF938091B60288230D
:102A900009F4BDC00E948B072091CA023091CB027D
:102AA000AB01421B530B9A015093B8024093B702FB
:102AB0006093CA027093CB028093CC029093CD02B4
:102AC0001091D102111110C0369527953093D00284
:102AD0002093CF02285C31092132334008F097C09F
:102AE00081E08093CE028EC0E091CF02F091D002BF
:102AF000EF01D695C7954C175D0740F0AF01440F25
:102B0000551F4E0F5F1F4217530730F4DF91CF91CF
:102B10001F910F910C94E51410FF65C0812F90E078
:102B20009595879569E070E00E947A25082F40917D
:102B3000CE02883009F1812F62E10E945A25A82F28
:102B4000B0E0A654BD4F442359F041E050E0002EC0
:102B500001C0440F0A94EAF78C91842B8C930EC029
:102B600041E050E0002E01C0440F0A94EAF740957E
:102B70008C9148234C9302C04111C8CF113129F4E4
:102B80008091BA028537D9F0C1CF1533C1F4809155
:102B9000BC02482F440F482750E0559547954F7188
:102BA0004093B9028AEF840F863008F0AFCF4D5FB3
:102BB00082E1489F402D1124435040930B018091A6
:102BC0000B01181780F018130BC00E9407158823FB
:102BD00039F0E091C802F091C9028AEB92E00995C0
:102BE0001092D10214C0EC0FFD1FE217F30750F44E
:102BF00081E09091CE02911180E08093CE021F5F20
:102C00001093D1028091D1028F5F8093D102DF9126
:102C1000CF911F910F9108951092D10281E080937E
:102C2000B6020895CF93DF931F92CDB7DEB77093AE
:102C3000C9026093C80289830E940C16898187FDAE
:102C400009C041E050E061E475E10F90DF91CF9160
:102C50000C943B190F90DF91CF9108950F931F9320
:102C6000FC01818190E0A5E095958795AA95E1F713
:102C7000853008F08150DB018C9381818F71DA01FE
:102C80008C9365816F707481472F50E084E0559577
:102C900047958A95E1F7AAE0A49FC001A59F900DF2
:102CA0001124B4E66B9F800D911D11247F70870F56
:102CB000911DD90111969C938E93458147FD05C0C6
:102CC0009195819591098D939C932681922F96954C
:102CD000969596959E71892F880F880F890F2F7072
:102CE000820FF80180831F910F910895CF93DF9396
:102CF000C091D802D091D902209739F0EA81FB81A6
:102D000009950990D881C02DF7CFDF91CF91089513
:102D1000CF93DF93C091DA02D091DB02209739F094
:102D2000EA81FB8109950990D881C02DF7CFDF9109
:102D3000CF910895CF93DF93C091DC02D091DD0253
:102D4000209739F0EA81FB8109950990D881C02D3F
:102D5000F7CFDF91CF910895CF93DF93C091DE023B
:102D6000D091DF02209739F0EA81FB810995099023
:102D7000D881C02DF7CFDF91CF910895CF93DF9306
:102D8000C091E002D091E102209739F0EA81FB8105
:102D900009950990D881C02DF7CFDF91CF91089583
:102DA000CF93DF93C091E202D091E302209739F0F4
:102DB000EA81FB8109950990D881C02DF7CFDF9179
:102DC000CF910895E82FF0E0EE52FD4F6083089513
:102DD0008230D1F028F4882349F0813071F00895D1
:102DE000843001F1C0F0853021F108954091D20284
:102DF00050E066E776E180E022C04091D30250E0E7
:102E000068E876E181E01BC04091D40250E06AE9B5
:102E100076E182E014C04091D50250E06CEA76E1A0
:102E200083E00DC04091D60250E06EEB76E184E085
:102E300006C04091D70250E060ED76E185E00C9449
:102E40003B19DF92EF92FF920F931F93CF93DF9383
:102E5000D82E7B01C82FD0E0CC0FDD1FC852DD4F2C
:102E60000881198184E090E00E94AE1AFC019983E8
:102E70008883F382E282118300838D2DDF91CF91CD
:102E80001F910F91FF90EF90DF900C94E8160C9437
:102E90005B19FC0166834783208781E0858708955D
:102EA000CF93DF93EC0160E08E810E94430861E0E4
:102EB0008E810E947C0819861A861B861C86DF91EB
:102EC000CF910895DF92EF92FF920F931F93CF93CC
:102ED000DF93EC010E947F0709851A852B853C85CD
:102EE000601771078207930720F419861A861B86DC
:102EF0001C862D85211111C009851A852B853C85DD
:102F0000DC01CB01801B910BA20BB30B803D9740E2
:102F1000A105B10510F481E07BC01D860E947F07EA
:102F200069877A878B879C871C821B821A82198209
:102F3000188261E08E810E947C086AEF70E080E078
:102F400090E00E94AE0761E08E810E94430860E03D
:102F50008E810E947C0864E170E080E090E00E9435
:102F6000AE07F89461E08E810E947C0888E290E0D0
:102F70000E94D40760E08E810E944308F12CD12C7E
:102F800081E0E12C082F10E08E810E94B2088017AA
:102F9000910741F4E39481E090E00E94D4078FEF21
:102FA000E812F2CF8E810E94B2089FEFE916C9F0B5
:102FB00023E02F1590F4F0FC10C09D2D969596956A
:102FC0009695FE01E90FF11D9081990F9083288558
:102FD0002E1510F491609083D394F39495E5F91233
:102FE000D0CF789427E22D1590F42C8130E04881E1
:102FF000898190E0840F911D4A81840F911D4B813E
:10300000840F911D99272817390709F484CF80E090
:10301000DF91CF911F910F91FF90EF90DF90089576
:10302000CF92DF92EF92FF920F931F93CF93DF9394
:10303000EC01162F0E946217882309F450C08F817B
:103040008B3031F008F44BC08551823078F047C0A6
:103050006A8170E080E090E00E94F021112309F481
:1030600043C020E030E040E151E42AC00A81602FF3
:103070006F7770E080E090E00E94F22120E030E085
:1030800040E853E40E947E226B017C016B8170E07A
:1030900080E090E00E94F2219B01AC01C701B601E3
:1030A0000E94F82020E030E040E251E40E945C21E0
:1030B00007FD90581123D9F020E030E040E151E4C1
:1030C0000E947E2220E030E040EA50E40E945C2131
:1030D00020E030E040E052E40E94F82008C020E008
:1030E00030E040EC5FE705C09B01AC0102C09B01F2
:1030F000AC01B901CA01DF91CF911F910F91FF90EF
:10310000EF90DF90CF900895CF92DF92EF92FF92F1
:10311000CF93DF93EC010E946217882379F18F81AE
:103120008B3029F158F18551823040F5688170E08B
:1031300080E090E00E94F02120E030E040E853E49D
:103140000E947E226B017C01698170E080E090E04A
:103150000E94F2219B01AC01C701B6010E94F82038
:1031600020E030E040E251E40E945C210BC0688125
:1031700070E080E090E00E94F02104C060E070E028
:1031800080EC9FE7DF91CF91FF90EF90DF90CF90A1
:1031900008950895CF93DF9363E270E088EE92E0A4
:1031A0000E94901C42E050E063E270E088EE92E002
:1031B0000E94831C88EE92E00E94DD1BD82F80E0E5
:1031C000C82F88EE92E00E94DD1BC82BD92B88EE19
:1031D00092E00E94A51CBE0180E090E00E94F021D8
:1031E0002AE939E949E95FE30E945C210E94C42190
:1031F000CB01DF91CF910895CF93C62F63E270E0AA
:1032000088EE92E00E94901C6C2F88EE92E00E9463
:103210002D1C88EE92E0CF910C94A51C633161F0D7
:1032200028F420EF260F223078F406C0603260F0D8
:10323000623210F0633241F40E94FC188FE39CE983
:103240000197F1F700C0000008950F931F93CF93EB
:10325000DF931F92CDB7DEB78C0188EE92E06983D1
:103260000E946C1C6981C8010F90DF91CF911F9162
:103270000F910C940E198230E8F4E82FF0E0EE0F75
:10328000FF1FEC51FD4F71836083813041F08091CD
:1032900069008C7F842B80936900E89A089580915F
:1032A0006900440F551F440F551F837F842B809363
:1032B0006900E99A0895823068F4813011F0E89845
:1032C00001C0E998E82FF0E0EE0FFF1FEC51FD4F31
:1032D0001182108208951F920F920FB60F9211243F
:1032E0002F933F934F935F936F937F938F939F930E
:1032F000AF93BF93EF93FF938091E4029091E50227
:10330000892B29F0E091E402F091E5020995FF9103
:10331000EF91BF91AF919F918F917F916F915F914D
:103320004F913F912F910F900FBE0F901F901895C6
:103330001F920F920FB60F9211242F933F934F932A
:103340005F936F937F938F939F93AF93BF93EF930D
:10335000FF938091E6029091E702892B29F0E0919A
:10336000E602F091E7020995FF91EF91BF91AF91CD
:103370009F918F917F916F915F914F913F912F918D
:103380000F900FBE0F901F9018956F927F928F92A3
:103390009F92AF92BF92CF92DF92EF92FF920F93E4
:1033A0001F93CF93DF93EC01CB01209781F4DF9142
:1033B000CF911F910F91FF90EF90DF90CF90BF9032
:1033C000AF909F908F907F906F900C94AE1AFE01FB
:1033D000E60FF71F9E0122503109E217F30708F4A8
:1033E000ACC0D9010D911C91119706171707B8F0C1
:1033F0000530110508F49FC0A80144505109461733
:10340000570708F498C002501109061B170B0193C7
:1034100011936D937C93CF010E94461B8CC05B017E
:10342000A01AB10A4E01800E911EA091AA03B0917C
:10343000AB03612C712C60E070E0109709F449C077
:10344000A815B905C9F5ED90FC901197670142E008
:10345000C40ED11CCA14DB0478F147018A189B08FA
:10346000640142E0C40ED11C1296BC9012971396D0
:10347000AC91B5E0CB16D10440F0B282A383918227
:103480008082D9018D939C9309C00E5F1F4F0E0D52
:103490001F1DF90111830083EB2DFA2F61157105B2
:1034A00031F0DB011396FC93EE93129744C0F09336
:1034B000AB03E093AA033FC06D917C911197661610
:1034C000770608F43B01BD0112960D90BC91A02D2A
:1034D000B4CF6091A8037091A90368157905E9F448
:1034E00068167906D0F440910C0150910D014115F8
:1034F000510541F44DB75EB7609110017091110113
:10350000461B570BE417F507C0F4F093A903E093AB
:10351000A803F901918380830EC00E94AE1A7C013A
:10352000009759F0A801BE010E941E20CE010E9402
:10353000461BC70104C0CE0102C080E090E0DF91CD
:10354000CF911F910F91FF90EF90DF90CF90BF90A0
:10355000AF909F908F907F906F900895CF93DF935F
:103560008230910510F482E090E0E091AA03F0919E
:10357000AB0320E030E0A0E0B0E0309739F14081CB
:10358000518148175907B8F04817590771F48281DB
:103590009381109729F013969C938E9312972CC0C9
:1035A0009093AB038093AA0327C02115310531F016
:1035B0004217530718F0A901DB0101C0EF019A017E
:1035C000BD01DF010280F381E02DD7CF2115310548
:1035D000F9F0281B390B2430310580F48A819B8156
:1035E0006115710521F0FB019383828304C09093E0
:1035F000AB038093AA03FE01329644C0FE01E20FA2
:10360000F31F8193919322503109398328833AC063
:103610002091A8033091A903232B41F420910E019E
:1036200030910F013093A9032093A80320910C013E
:1036300030910D012115310541F42DB73EB7409170
:10364000100150911101241B350BE091A803F0915A
:10365000A903E217F307A0F42E1B3F0B2817390725
:1036600078F0AC014E5F5F4F2417350748F04E0FDE
:103670005F1F5093A9034093A8038193919302C0C5
:10368000E0E0F0E0CF01DF91CF910895CF93DF9399
:10369000009709F487C0FC01329713821282C0910F
:1036A000AA03D091AB03209781F420813181280FA8
:1036B000391F8091A8039091A9038217930779F588
:1036C000F093A903E093A8036DC0DE0120E030E091
:1036D000AE17BF0750F412964D915C9113979D0160
:1036E0004115510509F1DA01F3CFB383A28340817B
:1036F0005181840F951F8A179B0771F48D919C91BE
:103700001197840F951F02969183808312968D9155
:103710009C911397938382832115310529F4F093AB
:10372000AB03E093AA033EC0D9011396FC93EE933A
:1037300012974D915D91A40FB51FEA17FB0779F41D
:1037400080819181840F951F0296D90111969C93D7
:103750008E938281938113969C938E931297E0E0CF
:10376000F0E08A819B81009719F0FE01EC01F9CF0E
:10377000CE01029628813981820F931F2091A803E0
:103780003091A9032817390769F4309729F410926A
:10379000AB031092AA0302C013821282D093A90332
:1037A000C093A803DF91CF9108958091180390E012
:1037B00020911903821B910908952091190380918A
:1037C0001803281750F4E22FF0E0E65EFC4F8081EA
:1037D00090E02F5F2093190308958FEF9FEF0895D6
:1037E000E091190380911803E81730F4F0E0E65EE9
:1037F000FC4F808190E008958FEF9FEF089508952A
:10380000CF92DF92EF92FF920F931F93CF93DF93AC
:103810007C01CB018A012091F402222389F0EB0183
:103820006B01C40ED51ECC15DD0569F06991D70179
:10383000ED91FC910190F081E02DC7010995F3CF46
:10384000642F0E94611DC801DF91CF911F910F91DC
:10385000FF90EF90DF90CF900895CF93DF931F926A
:10386000CDB7DEB769832091F4022223D1F02091F5
:10387000F502203240F021E030E0FC013383228366
:1038800080E090E015C08091F602E82FF0E0E9506A
:10389000FD4F998190838F5F8093F6028093F502AC
:1038A00005C061E0CE0101960E94611D81E090E0BB
:1038B0000F90DF91CF910895FC011382128248EEA0
:1038C00053E060E070E044835583668377838BE741
:1038D00091E0918380830895109219031092180348
:1038E0001092F6021092F5020C94AC1C862F413215
:1038F00008F040E26AE173E00E94CA1C10921903CA
:1039000080931803089521E00C94761C81E0809345
:10391000F402609317031092F6021092F5020895D4
:103920000C94861C0F93062F21E04091F50267EF5F
:1039300072E0809117030E940E1D1092F602109201
:10394000F5021092F4020F91089561E00C94921C1C
:1039500088EE92E00C945C1C1092A70381E08093A7
:10396000A5031092A40361E082E10E947C0861E05B
:1039700083E10E947C08E9EBF0E080818E7F808308
:1039800080818D7F808388E48093B80085E4809374
:10399000BC000895413208F03FC09091A7039111F7
:1039A000FCCF91E09093A7032093A5032FEF2093E2
:1039B0003A0310927F03240F20937E039093A60373
:1039C0009091A603880F892B8093A6038091A4036E
:1039D000813041F41092A4038091A6038093BB0030
:1039E00085EC01C085EE8093BC008091A7038130F7
:1039F000E1F380917F03841710F440917F0320E866
:103A000033E0FB01D9018A2F821B841718F48D91B2
:103A10008193F9CF842F089580E008950F93413268
:103A200008F046C09091A7039111FCCF92E09093CB
:103A3000A7030093A5039FEF90933A0310927F038F
:103A400040937E03FB0160E873E0DB019A2F961B35
:103A5000941718F491919D93F9CF1092A603909129
:103A6000A603880F892B8093A6038091A40381303D
:103A700041F41092A4038091A6038093BB0085ECCF
:103A800001C085EE8093BC00222321F08091A70322
:103A90008230E1F380913A038F3F61F080913A03E5
:103AA000803251F080913A03803341F483E007C0C3
:103AB00081E005C080E003C082E001C084E00F9196
:103AC0000895613298F42091A703243089F460931B
:103AD0005C03FC018EE593E0DC012A2F281B2617EE
:103AE00018F421912D93F9CF80E0089581E0089595
:103AF00082E0089585ED8093BC008091BC0084FD38
:103B0000FCCF1092A703089585EC8093BC0010921F
:103B1000A70308951F920F920FB60F9211242F93AF
:103B20003F934F935F936F937F938F939F93AF9345
:103B3000BF93EF93FF938091B900887F803609F49B
:103B40009CC068F5883209F45BC090F4803109F4B8
:103B500054C038F4882309F4F5C0883009F44DC006
:103B6000F5C0883109F44CC0803209F45DC0EEC064
:103B7000803409F468C048F4803309F455C08833B0
:103B800009F0E4C080933A03A8C0803509F44FC01F
:103B9000883509F45DC0883409F0D8C0D5C08839AB
:103BA00009F4C6C0A8F4883709F467C038F4883629
:103BB00009F463C0803709F460C0C8C0883809F4CC
:103BC000B7C0803909F45FC0803809F0BFC05BC05E
:103BD000803B09F485C038F4803A09F466C0883A1D
:103BE00009F47EC0B3C0803C09F4A6C0883C09F447
:103BF000A3C0883B09F489C0A9C08091A60310C066
:103C000090917F0380917E03981770F5E0917F0378
:103C100081E08E0F80937F03F0E0E058FC4F8081BD
:103C20008093BB0085EC85C080933A038DC0E09102
:103C30007F0381E08E0F80937F038091BB00F0E0D3
:103C4000E058FC4F808390917F0380917E036DC08C
:103C5000E0917F0381E08E0F80937F038091BB0012
:103C6000F0E0E058FC4F80838091A50381116CC087
:103C700081E08093A40384EA60C083E08093A7037B
:103C800010923B03CFCF80913B03803208F050C0AD
:103C9000E0913B0381E08E0F80933B038091BB005A
:103CA000F0E0E45CFC4F8083BDCF80913B03803229
:103CB00030F4E0913B03F0E0E45CFC4F10820E94A2
:103CC0007A1D60913B0370E0E091A003F091A103A5
:103CD0008CE393E0099510923B030E94841D36C04B
:103CE00084E08093A70310925D0310925C03E0913F
:103CF000A203F091A303099580915C03811105C093
:103D000081E080935C0310925E03E0915D0381E0AB
:103D10008E0F80935D03F0E0E25AFC4F8081809328
:103D2000BB0090915D0380915C03981708F47ACFF3
:103D300085E88093BC000AC085EC8093BC0010929B
:103D4000A70304C010923A030E947A1DFF91EF91DD
:103D5000BF91AF919F918F917F916F915F914F91A3
:103D60003F912F910F900FBE0F901F901895EF92DB
:103D70000F931F93CF93DF93E80147FF02C034E115
:103D800001C034E0E42FFF27E7FDF095F7FF03C003
:103D9000F195E195F109E32E022F2E2FAE010E943D
:103DA000E122CE01DF91CF911F910F91EF90089505
:103DB0002F923F925F926F927F928F929F92AF92DB
:103DC000BF92CF92DF92EF92FF920F931F93CF9308
:103DD000DF938B01EA016115710521F0DB018C9302
:103DE00011969C93209739F09E012250310923327D
:103DF000310508F0D8C07C016701BFEFCB1ADB0AA0
:103E00005601F7016080862D90E00E941620892BD4
:103E100011F07601F1CFFDE26F120AC0570182E086
:103E2000A80EB11CD70111966C90772473940BC027
:103E3000BBE26B1207C05701E2E0AE0EB11CD70126
:103E400011966C90712CCE018F7E892B89F4B0E392
:103E50006B1237C0F50180818F7D8835D1F4618088
:103E6000F2E0AF0EB11C872D8260782EC0E1D0E069
:103E7000CA30D10551F1C031D10521F0C830D1058A
:103E800099F409C0CC24CA94DC2CEC2CAFE0FA2EB7
:103E900022C0209769F7C8E0D0E0CC24CA94DC2C7B
:103EA000EC2CFFE1FF2E17C06FEF7FEFCB019E01DF
:103EB000442737FD4095542F0E948E2569017A01D1
:103EC0000AC02097A9F6CAE0D0E0E9E9CE2EDC2CA2
:103ED000EC2CE9E1FE2EF50160E020E030E0A901E4
:103EE0004E01AA2497FCA094BA2C1F0170ED572E06
:103EF000560CA9E0A51570F48FEB860D8A3118F4E5
:103F000099EC592E06C08FE9860D8A3148F589EA69
:103F1000582E560C852D90E08C179D070CF56F3FA1
:103F2000D9F0C216D306E406F50698F0C501B4012F
:103F30000E944A259B01AC01852D90E0A0E0B0E0F5
:103F4000280F391F4A1F5B1F281739074A075B07CD
:103F500010F46FEF01C061E03196D1016C90C5CFD4
:103F60000115110551F0662311F0319703C071FE60
:103F700004C03297D801ED93FC9370FE07C05095B2
:103F80004095309521953F4F4F4F5F4F67FF10C0D1
:103F900082E290E09093AD038093AC036FEF7FEFEC
:103FA0008FEF9FEF07C060E070E080E090E002C01C
:103FB000B901CA01DF91CF911F910F91FF90EF904E
:103FC000DF90CF90BF90AF909F908F907F906F9039
:103FD0005F903F902F9008951F93FC0199278827A9
:103FE000BC01E89411911032E9F3193010F01E3041
:103FF000C8F31B3251F01D3249F4689406C00E9488
:104000009020610F711D811D911D119110531A3067
:10401000B0F33EF490958095709561957F4F8F4FEA
:104020009F4F1F910895F8940C94D02591111FC5AE
:10403000803219F089508550D0F70895FB01DC01DA
:1040400002C001900D9241505040D8F70895FB01F5
:10405000DC018D91019080190110D9F3990B08951D
:10406000FB01DC0101900D920020E1F70895FB01B6
:10407000DC014150504048F001900D920020C9F7FA
:1040800001C01D9241505040E0F70895FB0151914D
:104090005523A9F0BF01DC014D9145174111E1F70E
:1040A00059F4CD010190002049F04D914015411186
:1040B000C9F3FB014111EFCF81E090E00197089532
:1040C0004532510520F4423010F00C946B20FB0176
:1040D0001082CB010895BB274A3031F4992322F492
:1040E000BDE2909581959F4F0C94DE2025323105DD
:1040F00020F4223010F00C948120FA011082CA01C1
:104100000895BB272A3051F4992342F4BDE29095DB
:104110008095709561957F4F8F4F9F4F0C94B12084
:10412000592F482F372F262F660F771F881F991F6B
:10413000660F771F881F991F620F731F841F951FBB
:10414000660F771F881F991F08952532310520F4C7
:10415000223010F00C94B020FA011082CA010895A8
:10416000BB27FA01A62F6217710581059105330B54
:1041700030FB66F0AA27660F771F881F991FAA1FBA
:10418000A21710F0A21B63953850A9F7A05DAA33BF
:1041900008F0A95DA19336F7B111B1931082CA015D
:1041A0000C943A254532510520F4423010F00C941D
:1041B000DD20FB011082CB010895BB27FB015527B1
:1041C000AA27880F991FAA1FA41710F0A41B839574
:1041D0005051B9F7A05DAA3308F0A95DA1930097EB
:1041E00079F7B111B1931192CB010C943A25505843
:1041F000BB27AA270ED048C139D130F03ED120F0DC
:1042000031F49F3F11F41EF42EC10EF4E095E7FB4C
:1042100024C1E92F4AD180F3BA17620773078407D4
:10422000950718F071F49EF562C10EF4E0950B2E1F
:10423000BA2FA02D0B01B90190010C01CA01A001F8
:104240001124FF27591B99F0593F50F4503E68F153
:104250001A16F040A22F232F342F4427585FF3CF94
:10426000469537952795A795F0405395C9F77EF465
:104270001F16BA0B620B730B840BBAF09150A1F0AE
:10428000FF0FBB1F661F771F881FC2F70EC0BA0F34
:10429000621F731F841F48F4879577956795B795BC
:1042A000F7959E3F08F0B3CF9395880F08F09927B4
:1042B000EE0F9795879508950CD0E6C0DED040F0BC
:1042C000D5D030F021F45F3F19F0C7C0511110C1B3
:1042D000CAC0EBD098F39923C9F35523B1F3951BCA
:1042E000550BBB27AA2762177307840738F09F5F17
:1042F0005F4F220F331F441FAA1FA9F333D00E2E86
:104300003AF0E0E830D091505040E695001CCAF7F2
:1043100029D0FE2F27D0660F771F881FBB1F2617B7
:1043200037074807AB07B0E809F0BB0B802DBF018A
:10433000FF2793585F4F2AF09E3F510568F08DC0CC
:10434000D7C05F3FECF3983EDCF386957795679591
:10435000B795F7959F5FC9F7880F911D969587953B
:1043600097F90895E1E0660F771F881FBB1F62175A
:1043700073078407BA0720F0621B730B840BBA0B18
:10438000EE1F88F7E095089598D088F09F5790F039
:10439000B92F9927B751A0F0D1F0660F771F881F6A
:1043A000991F1AF0BA95C9F712C0B13081F09FD0A9
:1043B000B1E008959CC0672F782F8827B85F39F047
:1043C000B93FCCF3869577956795B395D9F73EF4C9
:1043D00090958095709561957F4F8F4F9F4F089571
:1043E000E89409C097FB3EF490958095709561958F
:1043F0007F4F8F4F9F4F9923A9F0F92F96E9BB2745
:104400009395F695879577956795B795F111F8CFC0
:10441000FAF4BB0F11F460FF1BC06F5F7F4F8F4F2B
:104420009F4F16C0882311F096E911C0772321F021
:104430009EE8872F762F05C0662371F096E8862FB9
:1044400070E060E02AF09A95660F771F881FDAF710
:10445000880F9695879597F9089597F99F6780E853
:1044600070E060E008959FEF80EC089500240A94C6
:104470001616170618060906089500240A9412163F
:104480001306140605060895092E0394000C11F472
:10449000882352F0BB0F40F4BF2B11F460FF04C01F
:1044A0006F5F7F4F8F4F9F4F089557FD9058440F78
:1044B000551F59F05F3F71F04795880F97FB991F83
:1044C00061F09F3F79F08795089512161306140640
:1044D000551FF2CF4695F1DF08C0161617061806CD
:1044E000991FF1CF86957105610508940895E894A8
:1044F000BB2766277727CB0197F908950BD0C4CF48
:10450000B5DF28F0BADF18F0952309F0A6CFABCFBE
:104510001124EECFCADFA0F3959FD1F3950F50E0A1
:10452000551F629FF001729FBB27F00DB11D639F65
:10453000AA27F00DB11DAA1F649F6627B00DA11D0B
:10454000661F829F2227B00DA11D621F739FB00DB1
:10455000A11D621F839FA00D611D221F749F332721
:10456000A00D611D231F849F600D211D822F762FBA
:104570006A2F11249F5750408AF0E1F088234AF0B7
:10458000EE0FFF1FBB1F661F771F881F9150504003
:10459000A9F79E3F510570F060CFAACF5F3FECF3C3
:1045A000983EDCF3869577956795B795F795E795EF
:1045B0009F5FC1F7FE2B880F911D9695879597F900
:1045C00008956F927F929F92AF92BF92CF92DF92A7
:1045D000EF92FF920F931F93CF93DF93CDB7DEB788
:1045E00029970FB6F894DEBF0FBECDBF6A01B22E79
:1045F000102F0C3320F4FF24F394F00E02C04CE390
:10460000F42E0F2D27E0AE014F5F5F4F0E945F2415
:104610007981272F2970213031F0E1FC06C0E0FCC0
:1046200006C060E005C06DE203C06BE201C060E25D
:10463000AE2DA07173FF36C0662311F084E001C077
:1046400083E08B1510F4B81A01C0B12CA1110BC076
:10465000F6018B2D90E2882319F091938150FBCFC6
:10466000CB0CD11CB12C662331F0F601608396018E
:104670002F5F3F4F6901C6010396E2FE05C02EE49D
:10468000F601208331E404C02EE6F601208331E6F2
:1046900031832283FC012B2D30E22223F1F131936F
:1046A0002150FBCF72FF40C0662311F084E001C0AF
:1046B00083E08B1510F4B81A01C0B12CA1110BC006
:1046C000F6018B2D90E2882319F091938150FBCF56
:1046D000CB0CD11CB12C662331F0F601608396011E
:1046E0002F5F3F4F6901C6010396E2FE07C029E430
:1046F000F60120832EE4218326E406C029E6F60194
:1047000020832EE6218326E62283FC012B2D30E236
:10471000222319F031932150FBCFFC01EB0DF11D49
:1047200010828EEF9FEFB7C0B1E0611101C0B0E021
:104730004B2F50E01816190624F49C012F5F3F4FB1
:1047400002C021E030E0240F351F112329F0412F52
:1047500050E04F5F5F4F02C040E050E0420F531FF8
:104760002B2D30E04217530714F4B41A01C0B12CBA
:104770002E2D287159F4F6012B2D30E2222319F049
:1047800031932150FBCFCB0CD11CB12CBB2331F08A
:10479000F601608396012F5F3F4F6901A1110BC0A5
:1047A000F6012B2D30E3222319F031932150FBCF5A
:1047B000CB0CD11CB12CF80E0A81372F3071A32EEF
:1047C00074FF03C0013309F4FA941F142CF42F2D45
:1047D000293018F028E001C021E0682F392F97FF19
:1047E00002C060E030E0462F532F612C712C3EE276
:1047F000932EBC01621B71099B01DC01A41BB50B4C
:10480000E1E0F0E0EC0FFD1FAE0FBF1FE12EF12C39
:10481000F194E194F1084F3FFFEF5F0731F4F601A7
:104820009082B6016F5F7F4F6B01841795074CF044
:104830002417350734F4BD01660D771DFB01118186
:1048400001C010E341505109FFEF6F1A7F0AB60112
:104850006F5F7F4F4E155F0524F0F60110836B01EB
:10486000DACF4817590739F4063320F4053319F421
:10487000A11001C011E3F6011083FB018B2D90E222
:10488000882319F091938150FBCFFB01EB0DF11DB3
:10489000108280E090E029960FB6F894DEBF0FBE3C
:1048A000CDBFDF91CF911F910F91FF90EF90DF90DF
:1048B000CF90BF90AF909F907F906F9008952830D9
:1048C00008F027E03327DA01990F311D87FD916049
:1048D00000966105710539F432602E5F3D9330E337
:1048E0002A95E1F708959F3F30F080387105610502
:1048F00009F03C5F3C5F3D93913008F08068911D6A
:10490000DF93CF931F930F93FF92EF92192F987F0E
:104910009695E92F96959695E90FFF27E45EFE4F51
:1049200099273327EE24FF24A701E7010590089477
:10493000079428F4360FE71EF81E491F511D660F15
:10494000771F881F991F0694A1F70590079428F4F4
:10495000E70EF81E491F561FC11D770F881F991FAC
:10496000661F0694A1F70590079428F4F80E491FD6
:10497000561FC71FD11D880F991F661F771F0694EA
:10498000A1F70590079420F4490F561FC71FD81FA1
:10499000990F661F771F881F0694A9F784911095B9
:1049A000177041F0D695C79557954795F794E794BA
:1049B0001A95C1F7E2ECF0E06894159015913591E5
:1049C0006591959105907FE27395E118F10A430B8B
:1049D000560BC90BD009C0F7E10CF11E431F561F3F
:1049E000C91FD01D7EF4703311F48A95E6CFE89488
:1049F000015030F0080F0AF40027021708F4202FA6
:104A00002395022F7A3328F079E37D932A95E9F7ED
:104A100010C07D932A9589F60694979567953795EA
:104A200017951794E118F10A430B560BC90BD009DF
:104A300098F023957E9173957A3308F070E37C9318
:104A40002013B8F77E9170617D9330F0839571E308
:104A50007D9370E32A95E1F71124EF90FF900F9179
:104A60001F91CF91DF91992787FD90950895992700
:104A700088270895DC01FC01672F71917723E1F706
:104A8000329704C07C916D9370836291AE17BF071B
:104A9000C8F30895DB018F939F930E94B025BF91C7
:104AA000AF91A29F800D911DA39F900DB29F900D7D
:104AB00011240895991B79E004C0991F961708F0F6
:104AC000961B881F7A95C9F780950895AA1BBB1B72
:104AD00051E107C0AA1FBB1FA617B70710F0A61BFE
:104AE000B70B881F991F5A95A9F780959095BC011F
:104AF000CD01089597FB072E16F4009407D077FD9B
:104B000009D00E94662507FC05D03EF4909581955A
:104B10009F4F0895709561957F4F0895A1E21A2ED9
:104B2000AA1BBB1BFD010DC0AA1FBB1FEE1FFF1F51
:104B3000A217B307E407F50720F0A21BB30BE40BA1
:104B4000F50B661F771F881F991F1A9469F76095E8
:104B50007095809590959B01AC01BD01CF010895A2
:104B60000E94C125A59F900DB49F900DA49F800D1C
:104B7000911D11240895EE0FFF1F0590F491E02D73
:104B80000994A29FB001B39FC001A39F700D811D26
:104B90001124911DB29F700D811D1124911D089546
:104BA00011E0C2ECD1E004C0FE010E94BD252296B6
:0A4BB000C43CD107C9F7F894FFCF09
:104BBA000A04000300060007000800FF0000AE0315
:104BCA008000322D312D00322D322D00332D003050
:104BDA002D312D4E6F2073656E646572436F646567
:104BEA0020646566696E656400312D4F4B004F463F
:104BFA004600302D556E6B6E6F776E20636F6D6D4C
:104C0A00616E640041544D6567613332382D5055E9
:104C1A002052656164790000000000440DDB08F051
:104C2A000C190D000D390D000000002D1C001CD5BB
:084C3A001BDD1BF01BFF1B003A
:00000001FF
